:020000040000FA
:0400000006EF00F017
:020004000000FA
:0800080019EF00F00DEC00F00F
:1000100010EC00F00AEF00F0F9D7946A8B6A120036
:10002000040EBD6EB16A94849E949D84F28CF28E0F
:100030001200190E53EC00F09E94010ED56E570E6F
:10004000D66E9E0ED76ED58EF294F2B417D09EB4B3
:1000500002D025EF00F08B8C130E53EC00F08B9C3C
:10006000130E53EC00F08B8C130E53EC00F08B9CB2
:1000700038EF00F0050E60279E9410008B8C130E55
:1000800053EC00F08B9C43EF00F0020E60279E942F
:100090001000540E626F260E616F0000612FFED7B4
:1000A000622FF9D71200636F49EC00F0632FFCD781
:0200B00012003C
:020000040030CA
:0100000000FF
:0100010000FE
:0100020019E4
:010003001EDE
:0100050000FA
:010006008079
:010008000FE8
:01000900C036
:01000A000FE6
:01000B00E014
:01000C000FE4
:01000D0040B2
:00000001FF
